{
  "contractName": "Election",
  "abi": [
    {
      "constant": true,
      "inputs": [
        {
          "internalType": "uint256",
          "name": "",
          "type": "uint256"
        }
      ],
      "name": "voter",
      "outputs": [
        {
          "internalType": "uint256",
          "name": "id",
          "type": "uint256"
        },
        {
          "internalType": "string",
          "name": "name",
          "type": "string"
        },
        {
          "internalType": "uint256",
          "name": "vote",
          "type": "uint256"
        }
      ],
      "payable": false,
      "stateMutability": "view",
      "type": "function"
    },
    {
      "constant": true,
      "inputs": [],
      "name": "Count",
      "outputs": [
        {
          "internalType": "uint256",
          "name": "",
          "type": "uint256"
        }
      ],
      "payable": false,
      "stateMutability": "view",
      "type": "function"
    },
    {
      "constant": false,
      "inputs": [
        {
          "internalType": "string",
          "name": "_name",
          "type": "string"
        }
      ],
      "name": "createCandidate",
      "outputs": [],
      "payable": false,
      "stateMutability": "nonpayable",
      "type": "function"
    },
    {
      "constant": false,
      "inputs": [
        {
          "internalType": "uint256",
          "name": "_id",
          "type": "uint256"
        }
      ],
      "name": "incrementVote",
      "outputs": [],
      "payable": false,
      "stateMutability": "nonpayable",
      "type": "function"
    }
  ],
  "bytecode": "0x608060405234801561001057600080fd5b50610453806100206000396000f3fe608060405234801561001057600080fd5b506004361061004c5760003560e01c806315ccb26a146100515780635fba7a561461007f57806393a8333e1461013a578063ab8ed1ba14610158575b600080fd5b61007d6004803603602081101561006757600080fd5b810190808035906020019092919050505061020d565b005b6101386004803603602081101561009557600080fd5b81019080803590602001906401000000008111156100b257600080fd5b8201836020820111156100c457600080fd5b803590602001918460018302840111640100000000831117156100e657600080fd5b91908080601f016020809104026020016040519081016040528093929190818152602001838380828437600081840152601f19601f820116905080830192505050505050509192919290505050610234565b005b6101426102ad565b6040518082815260200191505060405180910390f35b6101846004803603602081101561016e57600080fd5b81019080803590602001909291905050506102b7565b6040518084815260200180602001838152602001828103825284818151815260200191508051906020019080838360005b838110156101d05780820151818401526020810190506101b5565b50505050905090810190601f1680156101fd5780820380516001836020036101000a031916815260200191505b5094505050505060405180910390f35b60016000808381526020019081526020016000206002016000828254019250508190555050565b60018060008282540192505081905550604051806060016040528060015481526020018281526020016000815250600080600154815260200190815260200160002060008201518160000155602082015181600101908051906020019061029c929190610379565b506040820151816002015590505050565b6000600154905090565b6000602052806000526040600020600091509050806000015490806001018054600181600116156101000203166002900480601f0160208091040260200160405190810160405280929190818152602001828054600181600116156101000203166002900480156103695780601f1061033e57610100808354040283529160200191610369565b820191906000526020600020905b81548152906001019060200180831161034c57829003601f168201915b5050505050908060020154905083565b828054600181600116156101000203166002900490600052602060002090601f016020900481019282601f106103ba57805160ff19168380011785556103e8565b828001600101855582156103e8579182015b828111156103e75782518255916020019190600101906103cc565b5b5090506103f591906103f9565b5090565b61041b91905b808211156104175760008160009055506001016103ff565b5090565b9056fea265627a7a72315820e85dba4ae572f759eafc6574ae75b7894e46391fcc1dbc38c184135845caf9da64736f6c63430005100032",
  "source": "pragma solidity >=0.4.22 < 0.7.0;\n\ncontract Election{\n    \n    struct Voter {\n        uint id;\n        string name; // name of the candidate\n        uint vote; //vote count\n    }\n    \n    mapping (uint => Voter) public voter;\n    \n    uint candidateCount;\n\n    function Count() public view returns(uint){\n        return candidateCount;\n    }\n    \n    function createCandidate(string memory _name) public {\n        candidateCount += 1;\n        voter[candidateCount] = Voter(candidateCount, _name, 0);\n    }\n\n    function incrementVote (uint _id) public {\n    \tvoter[_id].vote += 1; //get the candidate based on the id\n    }\n    \n    \n    \n    \n}",
  "sourcePath": "/home/south/PycharmProjects/untitled/project/react/eth_vote/contracts/Election.sol",
  "compiler": {
    "name": "solc",
    "version": "0.5.16+commit.9c3226ce.Emscripten.clang"
  },
  "schemaVersion": "3.2.3",
  "updatedAt": "2020-08-08T16:51:16.392Z",
  "networkType": "ethereum",
  "devdoc": {
    "methods": {}
  },
  "userdoc": {
    "methods": {}
  }
}